{
  "_format": "hh-sol-artifact-1",
  "contractName": "PlayContract",
  "sourceName": "contracts/PlayContract.sol",
  "abi": [
    {
      "inputs": [],
      "stateMutability": "payable",
      "type": "constructor"
    },
    {
      "anonymous": false,
      "inputs": [
        {
          "indexed": false,
          "internalType": "uint256",
          "name": "playID",
          "type": "uint256"
        },
        {
          "indexed": true,
          "internalType": "address",
          "name": "from",
          "type": "address"
        },
        {
          "indexed": false,
          "internalType": "string",
          "name": "message",
          "type": "string"
        },
        {
          "indexed": false,
          "internalType": "uint256",
          "name": "timestamp",
          "type": "uint256"
        }
      ],
      "name": "NewPlay",
      "type": "event"
    },
    {
      "anonymous": false,
      "inputs": [
        {
          "indexed": false,
          "internalType": "uint256",
          "name": "playID",
          "type": "uint256"
        },
        {
          "indexed": false,
          "internalType": "address",
          "name": "receiver",
          "type": "address"
        },
        {
          "indexed": false,
          "internalType": "string",
          "name": "message",
          "type": "string"
        },
        {
          "indexed": false,
          "internalType": "uint256",
          "name": "timestamp",
          "type": "uint256"
        }
      ],
      "name": "SendMoneyToContract",
      "type": "event"
    },
    {
      "inputs": [],
      "name": "getBalance",
      "outputs": [
        {
          "internalType": "uint256",
          "name": "",
          "type": "uint256"
        }
      ],
      "stateMutability": "view",
      "type": "function"
    },
    {
      "inputs": [],
      "name": "getPlayList",
      "outputs": [
        {
          "components": [
            {
              "internalType": "uint256",
              "name": "id",
              "type": "uint256"
            },
            {
              "internalType": "address",
              "name": "author",
              "type": "address"
            },
            {
              "internalType": "string",
              "name": "message",
              "type": "string"
            },
            {
              "internalType": "uint256",
              "name": "timestamp",
              "type": "uint256"
            }
          ],
          "internalType": "struct PlayContract.Play[]",
          "name": "",
          "type": "tuple[]"
        }
      ],
      "stateMutability": "view",
      "type": "function"
    },
    {
      "inputs": [],
      "name": "owner",
      "outputs": [
        {
          "internalType": "address payable",
          "name": "",
          "type": "address"
        }
      ],
      "stateMutability": "view",
      "type": "function"
    },
    {
      "inputs": [],
      "name": "playID",
      "outputs": [
        {
          "internalType": "uint256",
          "name": "",
          "type": "uint256"
        }
      ],
      "stateMutability": "view",
      "type": "function"
    },
    {
      "inputs": [
        {
          "internalType": "uint256",
          "name": "",
          "type": "uint256"
        }
      ],
      "name": "playList",
      "outputs": [
        {
          "internalType": "uint256",
          "name": "id",
          "type": "uint256"
        },
        {
          "internalType": "address",
          "name": "author",
          "type": "address"
        },
        {
          "internalType": "string",
          "name": "message",
          "type": "string"
        },
        {
          "internalType": "uint256",
          "name": "timestamp",
          "type": "uint256"
        }
      ],
      "stateMutability": "view",
      "type": "function"
    },
    {
      "inputs": [
        {
          "internalType": "string",
          "name": "_message",
          "type": "string"
        }
      ],
      "name": "published",
      "outputs": [],
      "stateMutability": "payable",
      "type": "function"
    },
    {
      "inputs": [],
      "name": "withdraw",
      "outputs": [],
      "stateMutability": "payable",
      "type": "function"
    },
    {
      "stateMutability": "payable",
      "type": "receive"
    }
  ],
  "bytecode": "0x608060405233600260006101000a81548173ffffffffffffffffffffffffffffffffffffffff021916908373ffffffffffffffffffffffffffffffffffffffff1602179055506111d7806100546000396000f3fe6080604052600436106100745760003560e01c80638da5cb5b1161004e5780638da5cb5b146100e0578063a30527171461010b578063a52abdd214610136578063d4563e67146101525761007b565b806312065fe0146100805780633ccfd60b146100ab5780635e4a33dc146100b55761007b565b3661007b57005b600080fd5b34801561008c57600080fd5b50610095610192565b6040516100a2919061078a565b60405180910390f35b6100b361019a565b005b3480156100c157600080fd5b506100ca610279565b6040516100d7919061078a565b60405180910390f35b3480156100ec57600080fd5b506100f561027f565b60405161010291906107e6565b60405180910390f35b34801561011757600080fd5b506101206102a5565b60405161012d91906109e6565b60405180910390f35b610150600480360381019061014b9190610b51565b610400565b005b34801561015e57600080fd5b5061017960048036038101906101749190610bc6565b610689565b6040516101899493929190610c4c565b60405180910390f35b600047905090565b600260009054906101000a900473ffffffffffffffffffffffffffffffffffffffff1673ffffffffffffffffffffffffffffffffffffffff163373ffffffffffffffffffffffffffffffffffffffff161461022a576040517f08c379a000000000000000000000000000000000000000000000000000000000815260040161022190610ce4565b60405180910390fd5b60004790503373ffffffffffffffffffffffffffffffffffffffff166108fc829081150290604051600060405180830381858888f19350505050158015610275573d6000803e3d6000fd5b5050565b60005481565b600260009054906101000a900473ffffffffffffffffffffffffffffffffffffffff1681565b60606001805480602002602001604051908101604052809291908181526020016000905b828210156103f75783829060005260206000209060040201604051806080016040529081600082015481526020016001820160009054906101000a900473ffffffffffffffffffffffffffffffffffffffff1673ffffffffffffffffffffffffffffffffffffffff1673ffffffffffffffffffffffffffffffffffffffff16815260200160028201805461035c90610d33565b80601f016020809104026020016040519081016040528092919081815260200182805461038890610d33565b80156103d55780601f106103aa576101008083540402835291602001916103d5565b820191906000526020600020905b8154815290600101906020018083116103b857829003601f168201915b50505050508152602001600382015481525050815260200190600101906102c9565b50505050905090565b60016000808282546104129190610d93565b925050819055506000604051806080016040528060005481526020013373ffffffffffffffffffffffffffffffffffffffff16815260200183815260200142815250905060018190806001815401808255809150506001900390600052602060002090600402016000909190919091506000820151816000015560208201518160010160006101000a81548173ffffffffffffffffffffffffffffffffffffffff021916908373ffffffffffffffffffffffffffffffffffffffff16021790555060408201518160020190816104e89190610f73565b506060820151816003015550503373ffffffffffffffffffffffffffffffffffffffff167f33ef9c6839559c1176de3f10f27c95caca20ef7a9bae4e246dcaad5b9865e5ba600054844260405161054193929190611045565b60405180910390a260006611c37937e08000905080341015610598576040517f08c379a000000000000000000000000000000000000000000000000000000000815260040161058f906110cf565b60405180910390fd5b60003073ffffffffffffffffffffffffffffffffffffffff16826040516105be90611120565b60006040518083038185875af1925050503d80600081146105fb576040519150601f19603f3d011682016040523d82523d6000602084013e610600565b606091505b5050905080610644576040517f08c379a000000000000000000000000000000000000000000000000000000000815260040161063b90611181565b60405180910390fd5b7f7c4dbf8ef712adcfa4aac83be38c202ad5d6f24411000091f35f218a22fcbb0160005433864260405161067b9493929190610c4c565b60405180910390a150505050565b6001818154811061069957600080fd5b90600052602060002090600402016000915090508060000154908060010160009054906101000a900473ffffffffffffffffffffffffffffffffffffffff16908060020180546106e890610d33565b80601f016020809104026020016040519081016040528092919081815260200182805461071490610d33565b80156107615780601f1061073657610100808354040283529160200191610761565b820191906000526020600020905b81548152906001019060200180831161074457829003601f168201915b5050505050908060030154905084565b6000819050919050565b61078481610771565b82525050565b600060208201905061079f600083018461077b565b92915050565b600073ffffffffffffffffffffffffffffffffffffffff82169050919050565b60006107d0826107a5565b9050919050565b6107e0816107c5565b82525050565b60006020820190506107fb60008301846107d7565b92915050565b600081519050919050565b600082825260208201905092915050565b6000819050602082019050919050565b61083681610771565b82525050565b6000610847826107a5565b9050919050565b6108578161083c565b82525050565b600081519050919050565b600082825260208201905092915050565b60005b8381101561089757808201518184015260208101905061087c565b60008484015250505050565b6000601f19601f8301169050919050565b60006108bf8261085d565b6108c98185610868565b93506108d9818560208601610879565b6108e2816108a3565b840191505092915050565b6000608083016000830151610905600086018261082d565b506020830151610918602086018261084e565b506040830151848203604086015261093082826108b4565b9150506060830151610945606086018261082d565b508091505092915050565b600061095c83836108ed565b905092915050565b6000602082019050919050565b600061097c82610801565b610986818561080c565b9350836020820285016109988561081d565b8060005b858110156109d457848403895281516109b58582610950565b94506109c083610964565b925060208a0199505060018101905061099c565b50829750879550505050505092915050565b60006020820190508181036000830152610a008184610971565b905092915050565b6000604051905090565b600080fd5b600080fd5b600080fd5b600080fd5b7f4e487b7100000000000000000000000000000000000000000000000000000000600052604160045260246000fd5b610a5e826108a3565b810181811067ffffffffffffffff82111715610a7d57610a7c610a26565b5b80604052505050565b6000610a90610a08565b9050610a9c8282610a55565b919050565b600067ffffffffffffffff821115610abc57610abb610a26565b5b610ac5826108a3565b9050602081019050919050565b82818337600083830152505050565b6000610af4610aef84610aa1565b610a86565b905082815260208101848484011115610b1057610b0f610a21565b5b610b1b848285610ad2565b509392505050565b600082601f830112610b3857610b37610a1c565b5b8135610b48848260208601610ae1565b91505092915050565b600060208284031215610b6757610b66610a12565b5b600082013567ffffffffffffffff811115610b8557610b84610a17565b5b610b9184828501610b23565b91505092915050565b610ba381610771565b8114610bae57600080fd5b50565b600081359050610bc081610b9a565b92915050565b600060208284031215610bdc57610bdb610a12565b5b6000610bea84828501610bb1565b91505092915050565b610bfc8161083c565b82525050565b600082825260208201905092915050565b6000610c1e8261085d565b610c288185610c02565b9350610c38818560208601610879565b610c41816108a3565b840191505092915050565b6000608082019050610c61600083018761077b565b610c6e6020830186610bf3565b8181036040830152610c808185610c13565b9050610c8f606083018461077b565b95945050505050565b7fe5bf85e9a1bbe698afe59088e7baa6e68980e69c89e880850000000000000000600082015250565b6000610cce601883610c02565b9150610cd982610c98565b602082019050919050565b60006020820190508181036000830152610cfd81610cc1565b9050919050565b7f4e487b7100000000000000000000000000000000000000000000000000000000600052602260045260246000fd5b60006002820490506001821680610d4b57607f821691505b602082108103610d5e57610d5d610d04565b5b50919050565b7f4e487b7100000000000000000000000000000000000000000000000000000000600052601160045260246000fd5b6000610d9e82610771565b9150610da983610771565b9250828201905080821115610dc157610dc0610d64565b5b92915050565b60008190508160005260206000209050919050565b60006020601f8301049050919050565b600082821b905092915050565b600060088302610e297fffffffffffffffffffffffffffffffffffffffffffffffffffffffffffffffff82610dec565b610e338683610dec565b95508019841693508086168417925050509392505050565b6000819050919050565b6000610e70610e6b610e6684610771565b610e4b565b610771565b9050919050565b6000819050919050565b610e8a83610e55565b610e9e610e9682610e77565b848454610df9565b825550505050565b600090565b610eb3610ea6565b610ebe818484610e81565b505050565b5b81811015610ee257610ed7600082610eab565b600181019050610ec4565b5050565b601f821115610f2757610ef881610dc7565b610f0184610ddc565b81016020851015610f10578190505b610f24610f1c85610ddc565b830182610ec3565b50505b505050565b600082821c905092915050565b6000610f4a60001984600802610f2c565b1980831691505092915050565b6000610f638383610f39565b9150826002028217905092915050565b610f7c8261085d565b67ffffffffffffffff811115610f9557610f94610a26565b5b610f9f8254610d33565b610faa828285610ee6565b600060209050601f831160018114610fdd5760008415610fcb578287015190505b610fd58582610f57565b86555061103d565b601f198416610feb86610dc7565b60005b8281101561101357848901518255600182019150602085019450602081019050610fee565b86831015611030578489015161102c601f891682610f39565b8355505b6001600288020188555050505b505050505050565b600060608201905061105a600083018661077b565b818103602083015261106c8185610c13565b905061107b604083018461077b565b949350505050565b7fe4bd99e9a29de4b88de8b6b30000000000000000000000000000000000000000600082015250565b60006110b9600c83610c02565b91506110c482611083565b602082019050919050565b600060208201905081810360008301526110e8816110ac565b9050919050565b600081905092915050565b50565b600061110a6000836110ef565b9150611115826110fa565b600082019050919050565b600061112b826110fd565b9150819050919050565b7fe59091e59088e7baa6e6b187e6acbee5a4b1e8b4a50000000000000000000000600082015250565b600061116b601583610c02565b915061117682611135565b602082019050919050565b6000602082019050818103600083015261119a8161115e565b905091905056fea264697066735822122063852a386b378fb8cbf4b80b1213c03b36e0da6767ab40b87f7316e41dd8950264736f6c63430008180033",
  "linkReferences": {},
  "deployedLinkReferences": {}
}